{
  "_format": "hh-sol-artifact-1",
  "contractName": "NFTMarketplace",
  "sourceName": "contracts/NFTMarketplace.sol",
  "abi": [
    {
      "inputs": [],
      "stateMutability": "nonpayable",
      "type": "constructor"
    },
    {
      "anonymous": false,
      "inputs": [
        {
          "indexed": true,
          "internalType": "address",
          "name": "owner",
          "type": "address"
        },
        {
          "indexed": true,
          "internalType": "address",
          "name": "approved",
          "type": "address"
        },
        {
          "indexed": true,
          "internalType": "uint256",
          "name": "tokenId",
          "type": "uint256"
        }
      ],
      "name": "Approval",
      "type": "event"
    },
    {
      "anonymous": false,
      "inputs": [
        {
          "indexed": true,
          "internalType": "address",
          "name": "owner",
          "type": "address"
        },
        {
          "indexed": true,
          "internalType": "address",
          "name": "operator",
          "type": "address"
        },
        {
          "indexed": false,
          "internalType": "bool",
          "name": "approved",
          "type": "bool"
        }
      ],
      "name": "ApprovalForAll",
      "type": "event"
    },
    {
      "anonymous": false,
      "inputs": [
        {
          "indexed": true,
          "internalType": "uint256",
          "name": "tokenId",
          "type": "uint256"
        },
        {
          "indexed": false,
          "internalType": "address",
          "name": "seller",
          "type": "address"
        },
        {
          "indexed": false,
          "internalType": "address",
          "name": "owner",
          "type": "address"
        },
        {
          "indexed": false,
          "internalType": "uint256",
          "name": "price",
          "type": "uint256"
        },
        {
          "indexed": false,
          "internalType": "bool",
          "name": "sold",
          "type": "bool"
        }
      ],
      "name": "MarketItemCreated",
      "type": "event"
    },
    {
      "anonymous": false,
      "inputs": [
        {
          "indexed": true,
          "internalType": "address",
          "name": "from",
          "type": "address"
        },
        {
          "indexed": true,
          "internalType": "address",
          "name": "to",
          "type": "address"
        },
        {
          "indexed": true,
          "internalType": "uint256",
          "name": "tokenId",
          "type": "uint256"
        }
      ],
      "name": "Transfer",
      "type": "event"
    },
    {
      "inputs": [
        {
          "internalType": "address",
          "name": "to",
          "type": "address"
        },
        {
          "internalType": "uint256",
          "name": "tokenId",
          "type": "uint256"
        }
      ],
      "name": "approve",
      "outputs": [],
      "stateMutability": "nonpayable",
      "type": "function"
    },
    {
      "inputs": [
        {
          "internalType": "address",
          "name": "owner",
          "type": "address"
        }
      ],
      "name": "balanceOf",
      "outputs": [
        {
          "internalType": "uint256",
          "name": "",
          "type": "uint256"
        }
      ],
      "stateMutability": "view",
      "type": "function"
    },
    {
      "inputs": [
        {
          "internalType": "uint256",
          "name": "tokenId",
          "type": "uint256"
        }
      ],
      "name": "createMarketSale",
      "outputs": [],
      "stateMutability": "payable",
      "type": "function"
    },
    {
      "inputs": [
        {
          "internalType": "string",
          "name": "tokenURI",
          "type": "string"
        },
        {
          "internalType": "uint256",
          "name": "price",
          "type": "uint256"
        }
      ],
      "name": "createToken",
      "outputs": [
        {
          "internalType": "uint256",
          "name": "",
          "type": "uint256"
        }
      ],
      "stateMutability": "payable",
      "type": "function"
    },
    {
      "inputs": [],
      "name": "fetchItemsListed",
      "outputs": [
        {
          "components": [
            {
              "internalType": "uint256",
              "name": "tokenId",
              "type": "uint256"
            },
            {
              "internalType": "address payable",
              "name": "seller",
              "type": "address"
            },
            {
              "internalType": "address payable",
              "name": "owner",
              "type": "address"
            },
            {
              "internalType": "uint256",
              "name": "price",
              "type": "uint256"
            },
            {
              "internalType": "bool",
              "name": "sold",
              "type": "bool"
            }
          ],
          "internalType": "struct NFTMarketplace.MarketItem[]",
          "name": "",
          "type": "tuple[]"
        }
      ],
      "stateMutability": "view",
      "type": "function"
    },
    {
      "inputs": [],
      "name": "fetchMarketItems",
      "outputs": [
        {
          "components": [
            {
              "internalType": "uint256",
              "name": "tokenId",
              "type": "uint256"
            },
            {
              "internalType": "address payable",
              "name": "seller",
              "type": "address"
            },
            {
              "internalType": "address payable",
              "name": "owner",
              "type": "address"
            },
            {
              "internalType": "uint256",
              "name": "price",
              "type": "uint256"
            },
            {
              "internalType": "bool",
              "name": "sold",
              "type": "bool"
            }
          ],
          "internalType": "struct NFTMarketplace.MarketItem[]",
          "name": "",
          "type": "tuple[]"
        }
      ],
      "stateMutability": "view",
      "type": "function"
    },
    {
      "inputs": [],
      "name": "fetchMyNFTs",
      "outputs": [
        {
          "components": [
            {
              "internalType": "uint256",
              "name": "tokenId",
              "type": "uint256"
            },
            {
              "internalType": "address payable",
              "name": "seller",
              "type": "address"
            },
            {
              "internalType": "address payable",
              "name": "owner",
              "type": "address"
            },
            {
              "internalType": "uint256",
              "name": "price",
              "type": "uint256"
            },
            {
              "internalType": "bool",
              "name": "sold",
              "type": "bool"
            }
          ],
          "internalType": "struct NFTMarketplace.MarketItem[]",
          "name": "",
          "type": "tuple[]"
        }
      ],
      "stateMutability": "view",
      "type": "function"
    },
    {
      "inputs": [
        {
          "internalType": "uint256",
          "name": "tokenId",
          "type": "uint256"
        }
      ],
      "name": "getApproved",
      "outputs": [
        {
          "internalType": "address",
          "name": "",
          "type": "address"
        }
      ],
      "stateMutability": "view",
      "type": "function"
    },
    {
      "inputs": [],
      "name": "getListingPrice",
      "outputs": [
        {
          "internalType": "uint256",
          "name": "",
          "type": "uint256"
        }
      ],
      "stateMutability": "view",
      "type": "function"
    },
    {
      "inputs": [
        {
          "internalType": "address",
          "name": "owner",
          "type": "address"
        },
        {
          "internalType": "address",
          "name": "operator",
          "type": "address"
        }
      ],
      "name": "isApprovedForAll",
      "outputs": [
        {
          "internalType": "bool",
          "name": "",
          "type": "bool"
        }
      ],
      "stateMutability": "view",
      "type": "function"
    },
    {
      "inputs": [],
      "name": "name",
      "outputs": [
        {
          "internalType": "string",
          "name": "",
          "type": "string"
        }
      ],
      "stateMutability": "view",
      "type": "function"
    },
    {
      "inputs": [
        {
          "internalType": "uint256",
          "name": "tokenId",
          "type": "uint256"
        }
      ],
      "name": "ownerOf",
      "outputs": [
        {
          "internalType": "address",
          "name": "",
          "type": "address"
        }
      ],
      "stateMutability": "view",
      "type": "function"
    },
    {
      "inputs": [
        {
          "internalType": "uint256",
          "name": "tokenId",
          "type": "uint256"
        },
        {
          "internalType": "uint256",
          "name": "price",
          "type": "uint256"
        }
      ],
      "name": "resellToken",
      "outputs": [],
      "stateMutability": "payable",
      "type": "function"
    },
    {
      "inputs": [
        {
          "internalType": "address",
          "name": "from",
          "type": "address"
        },
        {
          "internalType": "address",
          "name": "to",
          "type": "address"
        },
        {
          "internalType": "uint256",
          "name": "tokenId",
          "type": "uint256"
        }
      ],
      "name": "safeTransferFrom",
      "outputs": [],
      "stateMutability": "nonpayable",
      "type": "function"
    },
    {
      "inputs": [
        {
          "internalType": "address",
          "name": "from",
          "type": "address"
        },
        {
          "internalType": "address",
          "name": "to",
          "type": "address"
        },
        {
          "internalType": "uint256",
          "name": "tokenId",
          "type": "uint256"
        },
        {
          "internalType": "bytes",
          "name": "data",
          "type": "bytes"
        }
      ],
      "name": "safeTransferFrom",
      "outputs": [],
      "stateMutability": "nonpayable",
      "type": "function"
    },
    {
      "inputs": [
        {
          "internalType": "address",
          "name": "operator",
          "type": "address"
        },
        {
          "internalType": "bool",
          "name": "approved",
          "type": "bool"
        }
      ],
      "name": "setApprovalForAll",
      "outputs": [],
      "stateMutability": "nonpayable",
      "type": "function"
    },
    {
      "inputs": [
        {
          "internalType": "bytes4",
          "name": "interfaceId",
          "type": "bytes4"
        }
      ],
      "name": "supportsInterface",
      "outputs": [
        {
          "internalType": "bool",
          "name": "",
          "type": "bool"
        }
      ],
      "stateMutability": "view",
      "type": "function"
    },
    {
      "inputs": [],
      "name": "symbol",
      "outputs": [
        {
          "internalType": "string",
          "name": "",
          "type": "string"
        }
      ],
      "stateMutability": "view",
      "type": "function"
    },
    {
      "inputs": [
        {
          "internalType": "uint256",
          "name": "tokenId",
          "type": "uint256"
        }
      ],
      "name": "tokenURI",
      "outputs": [
        {
          "internalType": "string",
          "name": "",
          "type": "string"
        }
      ],
      "stateMutability": "view",
      "type": "function"
    },
    {
      "inputs": [
        {
          "internalType": "address",
          "name": "from",
          "type": "address"
        },
        {
          "internalType": "address",
          "name": "to",
          "type": "address"
        },
        {
          "internalType": "uint256",
          "name": "tokenId",
          "type": "uint256"
        }
      ],
      "name": "transferFrom",
      "outputs": [],
      "stateMutability": "nonpayable",
      "type": "function"
    },
    {
      "inputs": [
        {
          "internalType": "uint256",
          "name": "_listingPrice",
          "type": "uint256"
        }
      ],
      "name": "updateListingPrice",
      "outputs": [],
      "stateMutability": "payable",
      "type": "function"
    }
  ],
  "bytecode": "0x60806040526658d15e176280006009553480156200001c57600080fd5b506040518060400160405280600e81526020017f506f6c79706c61636520496e632e0000000000000000000000000000000000008152506040518060400160405280600381526020017f504c59000000000000000000000000000000000000000000000000000000000081525081600090816200009a919062000370565b508060019081620000ac919062000370565b50505033600a60006101000a81548173ffffffffffffffffffffffffffffffffffffffff021916908373ffffffffffffffffffffffffffffffffffffffff16021790555062000457565b600081519050919050565b7f4e487b7100000000000000000000000000000000000000000000000000000000600052604160045260246000fd5b7f4e487b7100000000000000000000000000000000000000000000000000000000600052602260045260246000fd5b600060028204905060018216806200017857607f821691505b6020821081036200018e576200018d62000130565b5b50919050565b60008190508160005260206000209050919050565b60006020601f8301049050919050565b600082821b905092915050565b600060088302620001f87fffffffffffffffffffffffffffffffffffffffffffffffffffffffffffffffff82620001b9565b620002048683620001b9565b95508019841693508086168417925050509392505050565b6000819050919050565b6000819050919050565b6000620002516200024b62000245846200021c565b62000226565b6200021c565b9050919050565b6000819050919050565b6200026d8362000230565b620002856200027c8262000258565b848454620001c6565b825550505050565b600090565b6200029c6200028d565b620002a981848462000262565b505050565b5b81811015620002d157620002c560008262000292565b600181019050620002af565b5050565b601f8211156200032057620002ea8162000194565b620002f584620001a9565b8101602085101562000305578190505b6200031d6200031485620001a9565b830182620002ae565b50505b505050565b600082821c905092915050565b6000620003456000198460080262000325565b1980831691505092915050565b600062000360838362000332565b9150826002028217905092915050565b6200037b82620000f6565b67ffffffffffffffff81111562000397576200039662000101565b5b620003a382546200015f565b620003b0828285620002d5565b600060209050601f831160018114620003e85760008415620003d3578287015190505b620003df858262000352565b8655506200044f565b601f198416620003f88662000194565b60005b828110156200042257848901518255600182019150602085019450602081019050620003fb565b868310156200044257848901516200043e601f89168262000332565b8355505b6001600288020188555050505b505050505050565b61435980620004676000396000f3fe60806040526004361061012a5760003560e01c80636352211e116100ab578063ae677aa31161006f578063ae677aa3146103f9578063b88d4fde14610415578063be9af5361461043e578063c87b56dd1461045a578063e219fc7514610497578063e985e9c5146104b35761012a565b80636352211e146102fb57806370a082311461033857806372b3b6201461037557806395d89b41146103a5578063a22cb465146103d05761012a565b806312e85585116100f257806312e8558514610228578063202e37401461025357806323b872dd1461027e57806342842e0e146102a757806345f8fa80146102d05761012a565b806301ffc9a71461012f57806306fdde031461016c578063081812fc14610197578063095ea7b3146101d45780630f08efe0146101fd575b600080fd5b34801561013b57600080fd5b5061015660048036038101906101519190612c1d565b6104f0565b6040516101639190612c65565b60405180910390f35b34801561017857600080fd5b506101816105d2565b60405161018e9190612d10565b60405180910390f35b3480156101a357600080fd5b506101be60048036038101906101b99190612d68565b610664565b6040516101cb9190612dd6565b60405180910390f35b3480156101e057600080fd5b506101fb60048036038101906101f69190612e1d565b6106aa565b005b34801561020957600080fd5b506102126107c1565b60405161021f9190612fb3565b60405180910390f35b34801561023457600080fd5b5061023d610a29565b60405161024a9190612fe4565b60405180910390f35b34801561025f57600080fd5b50610268610a33565b6040516102759190612fb3565b60405180910390f35b34801561028a57600080fd5b506102a560048036038101906102a09190612fff565b610d1f565b005b3480156102b357600080fd5b506102ce60048036038101906102c99190612fff565b610d7f565b005b3480156102dc57600080fd5b506102e5610d9f565b6040516102f29190612fb3565b60405180910390f35b34801561030757600080fd5b50610322600480360381019061031d9190612d68565b61108b565b60405161032f9190612dd6565b60405180910390f35b34801561034457600080fd5b5061035f600480360381019061035a9190613052565b611111565b60405161036c9190612fe4565b60405180910390f35b61038f600480360381019061038a91906131b4565b6111c8565b60405161039c9190612fe4565b60405180910390f35b3480156103b157600080fd5b506103ba61120a565b6040516103c79190612d10565b60405180910390f35b3480156103dc57600080fd5b506103f760048036038101906103f2919061323c565b61129c565b005b610413600480360381019061040e9190612d68565b6112b2565b005b34801561042157600080fd5b5061043c6004803603810190610437919061331d565b61134c565b005b61045860048036038101906104539190612d68565b6113ae565b005b34801561046657600080fd5b50610481600480360381019061047c9190612d68565b6115ec565b60405161048e9190612d10565b60405180910390f35b6104b160048036038101906104ac91906133a0565b6116fe565b005b3480156104bf57600080fd5b506104da60048036038101906104d591906133e0565b6118f3565b6040516104e79190612c65565b60405180910390f35b60007f80ac58cd000000000000000000000000000000000000000000000000000000007bffffffffffffffffffffffffffffffffffffffffffffffffffffffff1916827bffffffffffffffffffffffffffffffffffffffffffffffffffffffff191614806105bb57507f5b5e139f000000000000000000000000000000000000000000000000000000007bffffffffffffffffffffffffffffffffffffffffffffffffffffffff1916827bffffffffffffffffffffffffffffffffffffffffffffffffffffffff1916145b806105cb57506105ca82611987565b5b9050919050565b6060600080546105e19061344f565b80601f016020809104026020016040519081016040528092919081815260200182805461060d9061344f565b801561065a5780601f1061062f5761010080835404028352916020019161065a565b820191906000526020600020905b81548152906001019060200180831161063d57829003601f168201915b5050505050905090565b600061066f826119f1565b6004600083815260200190815260200160002060009054906101000a900473ffffffffffffffffffffffffffffffffffffffff169050919050565b60006106b58261108b565b90508073ffffffffffffffffffffffffffffffffffffffff168373ffffffffffffffffffffffffffffffffffffffff1603610725576040517f08c379a000000000000000000000000000000000000000000000000000000000815260040161071c906134f2565b60405180910390fd5b8073ffffffffffffffffffffffffffffffffffffffff16610744611a3c565b73ffffffffffffffffffffffffffffffffffffffff16148061077357506107728161076d611a3c565b6118f3565b5b6107b2576040517f08c379a00000000000000000000000000000000000000000000000000000000081526004016107a990613584565b60405180910390fd5b6107bc8383611a44565b505050565b606060006107cf6007611afd565b905060006107dd6008611afd565b6107e76007611afd565b6107f191906135d3565b90506000808267ffffffffffffffff8111156108105761080f613089565b5b60405190808252806020026020018201604052801561084957816020015b610836612b54565b81526020019060019003908161082e5790505b50905060005b84811015610a1e573073ffffffffffffffffffffffffffffffffffffffff16600b600060018461087f9190613607565b815260200190815260200160002060020160009054906101000a900473ffffffffffffffffffffffffffffffffffffffff1673ffffffffffffffffffffffffffffffffffffffff1603610a0b5760006001826108db9190613607565b90506000600b60008381526020019081526020016000209050806040518060a0016040529081600082015481526020016001820160009054906101000a900473ffffffffffffffffffffffffffffffffffffffff1673ffffffffffffffffffffffffffffffffffffffff1673ffffffffffffffffffffffffffffffffffffffff1681526020016002820160009054906101000a900473ffffffffffffffffffffffffffffffffffffffff1673ffffffffffffffffffffffffffffffffffffffff1673ffffffffffffffffffffffffffffffffffffffff168152602001600382015481526020016004820160009054906101000a900460ff1615151515815250508486815181106109ee576109ed61363b565b5b6020026020010181905250600185610a069190613607565b945050505b8080610a169061366a565b91505061084f565b508094505050505090565b6000600954905090565b60606000610a416007611afd565b905060008060005b83811015610ae9573373ffffffffffffffffffffffffffffffffffffffff16600b6000600184610a799190613607565b815260200190815260200160002060020160009054906101000a900473ffffffffffffffffffffffffffffffffffffffff1673ffffffffffffffffffffffffffffffffffffffff1603610ad657600183610ad39190613607565b92505b8080610ae19061366a565b915050610a49565b5060008267ffffffffffffffff811115610b0657610b05613089565b5b604051908082528060200260200182016040528015610b3f57816020015b610b2c612b54565b815260200190600190039081610b245790505b50905060005b84811015610d14573373ffffffffffffffffffffffffffffffffffffffff16600b6000600184610b759190613607565b815260200190815260200160002060020160009054906101000a900473ffffffffffffffffffffffffffffffffffffffff1673ffffffffffffffffffffffffffffffffffffffff1603610d01576000600182610bd19190613607565b90506000600b60008381526020019081526020016000209050806040518060a0016040529081600082015481526020016001820160009054906101000a900473ffffffffffffffffffffffffffffffffffffffff1673ffffffffffffffffffffffffffffffffffffffff1673ffffffffffffffffffffffffffffffffffffffff1681526020016002820160009054906101000a900473ffffffffffffffffffffffffffffffffffffffff1673ffffffffffffffffffffffffffffffffffffffff1673ffffffffffffffffffffffffffffffffffffffff168152602001600382015481526020016004820160009054906101000a900460ff161515151581525050848681518110610ce457610ce361363b565b5b6020026020010181905250600185610cfc9190613607565b945050505b8080610d0c9061366a565b915050610b45565b508094505050505090565b610d30610d2a611a3c565b82611b0b565b610d6f576040517f08c379a0000000000000000000000000000000000000000000000000000000008152600401610d6690613724565b60405180910390fd5b610d7a838383611ba0565b505050565b610d9a8383836040518060200160405280600081525061134c565b505050565b60606000610dad6007611afd565b905060008060005b83811015610e55573373ffffffffffffffffffffffffffffffffffffffff16600b6000600184610de59190613607565b815260200190815260200160002060010160009054906101000a900473ffffffffffffffffffffffffffffffffffffffff1673ffffffffffffffffffffffffffffffffffffffff1603610e4257600183610e3f9190613607565b92505b8080610e4d9061366a565b915050610db5565b5060008267ffffffffffffffff811115610e7257610e71613089565b5b604051908082528060200260200182016040528015610eab57816020015b610e98612b54565b815260200190600190039081610e905790505b50905060005b84811015611080573373ffffffffffffffffffffffffffffffffffffffff16600b6000600184610ee19190613607565b815260200190815260200160002060010160009054906101000a900473ffffffffffffffffffffffffffffffffffffffff1673ffffffffffffffffffffffffffffffffffffffff160361106d576000600182610f3d9190613607565b90506000600b60008381526020019081526020016000209050806040518060a0016040529081600082015481526020016001820160009054906101000a900473ffffffffffffffffffffffffffffffffffffffff1673ffffffffffffffffffffffffffffffffffffffff1673ffffffffffffffffffffffffffffffffffffffff1681526020016002820160009054906101000a900473ffffffffffffffffffffffffffffffffffffffff1673ffffffffffffffffffffffffffffffffffffffff1673ffffffffffffffffffffffffffffffffffffffff168152602001600382015481526020016004820160009054906101000a900460ff1615151515815250508486815181106110505761104f61363b565b5b60200260200101819052506001856110689190613607565b945050505b80806110789061366a565b915050610eb1565b508094505050505090565b60008061109783611e99565b9050600073ffffffffffffffffffffffffffffffffffffffff168173ffffffffffffffffffffffffffffffffffffffff1603611108576040517f08c379a00000000000000000000000000000000000000000000000000000000081526004016110ff90613790565b60405180910390fd5b80915050919050565b60008073ffffffffffffffffffffffffffffffffffffffff168273ffffffffffffffffffffffffffffffffffffffff1603611181576040517f08c379a000000000000000000000000000000000000000000000000000000000815260040161117890613822565b60405180910390fd5b600360008373ffffffffffffffffffffffffffffffffffffffff1673ffffffffffffffffffffffffffffffffffffffff168152602001908152602001600020549050919050565b60006111d46007611ed6565b60006111e06007611afd565b90506111ec3382611eec565b6111f68185612109565b6112008184612176565b8091505092915050565b6060600180546112199061344f565b80601f01602080910402602001604051908101604052809291908181526020018280546112459061344f565b80156112925780601f1061126757610100808354040283529160200191611292565b820191906000526020600020905b81548152906001019060200180831161127557829003601f168201915b5050505050905090565b6112ae6112a7611a3c565b8383612379565b5050565b3373ffffffffffffffffffffffffffffffffffffffff16600a60009054906101000a900473ffffffffffffffffffffffffffffffffffffffff1673ffffffffffffffffffffffffffffffffffffffff1614611342576040517f08c379a0000000000000000000000000000000000000000000000000000000008152600401611339906138b4565b60405180910390fd5b8060098190555050565b61135d611357611a3c565b83611b0b565b61139c576040517f08c379a000000000000000000000000000000000000000000000000000000000815260040161139390613724565b60405180910390fd5b6113a8848484846124e5565b50505050565b6000600b60008381526020019081526020016000206003015490506000600b600084815260200190815260200160002060010160009054906101000a900473ffffffffffffffffffffffffffffffffffffffff169050813414611446576040517f08c379a000000000000000000000000000000000000000000000000000000000815260040161143d90613946565b60405180910390fd5b33600b600085815260200190815260200160002060020160006101000a81548173ffffffffffffffffffffffffffffffffffffffff021916908373ffffffffffffffffffffffffffffffffffffffff1602179055506001600b600085815260200190815260200160002060040160006101000a81548160ff0219169083151502179055506000600b600085815260200190815260200160002060010160006101000a81548173ffffffffffffffffffffffffffffffffffffffff021916908373ffffffffffffffffffffffffffffffffffffffff16021790555061152a6008611ed6565b611535303385611ba0565b600a60009054906101000a900473ffffffffffffffffffffffffffffffffffffffff1673ffffffffffffffffffffffffffffffffffffffff166108fc6009549081150290604051600060405180830381858888f1935050505015801561159f573d6000803e3d6000fd5b508073ffffffffffffffffffffffffffffffffffffffff166108fc349081150290604051600060405180830381858888f193505050501580156115e6573d6000803e3d6000fd5b50505050565b60606115f7826119f1565b60006006600084815260200190815260200160002080546116179061344f565b80601f01602080910402602001604051908101604052809291908181526020018280546116439061344f565b80156116905780601f1061166557610100808354040283529160200191611690565b820191906000526020600020905b81548152906001019060200180831161167357829003601f168201915b5050505050905060006116a1612541565b905060008151036116b65781925050506116f9565b6000825111156116eb5780826040516020016116d39291906139a2565b604051602081830303815290604052925050506116f9565b6116f484612558565b925050505b919050565b3373ffffffffffffffffffffffffffffffffffffffff16600b600084815260200190815260200160002060020160009054906101000a900473ffffffffffffffffffffffffffffffffffffffff1673ffffffffffffffffffffffffffffffffffffffff16146117a2576040517f08c379a000000000000000000000000000000000000000000000000000000000815260040161179990613a38565b60405180910390fd5b60095434146117e6576040517f08c379a00000000000000000000000000000000000000000000000000000000081526004016117dd90613aca565b60405180910390fd5b6000600b600084815260200190815260200160002060040160006101000a81548160ff02191690831515021790555080600b60008481526020019081526020016000206003018190555033600b600084815260200190815260200160002060010160006101000a81548173ffffffffffffffffffffffffffffffffffffffff021916908373ffffffffffffffffffffffffffffffffffffffff16021790555030600b600084815260200190815260200160002060020160006101000a81548173ffffffffffffffffffffffffffffffffffffffff021916908373ffffffffffffffffffffffffffffffffffffffff1602179055506118e460086125c0565b6118ef333084611ba0565b5050565b6000600560008473ffffffffffffffffffffffffffffffffffffffff1673ffffffffffffffffffffffffffffffffffffffff16815260200190815260200160002060008373ffffffffffffffffffffffffffffffffffffffff1673ffffffffffffffffffffffffffffffffffffffff16815260200190815260200160002060009054906101000a900460ff16905092915050565b60007f01ffc9a7000000000000000000000000000000000000000000000000000000007bffffffffffffffffffffffffffffffffffffffffffffffffffffffff1916827bffffffffffffffffffffffffffffffffffffffffffffffffffffffff1916149050919050565b6119fa8161261c565b611a39576040517f08c379a0000000000000000000000000000000000000000000000000000000008152600401611a3090613790565b60405180910390fd5b50565b600033905090565b816004600083815260200190815260200160002060006101000a81548173ffffffffffffffffffffffffffffffffffffffff021916908373ffffffffffffffffffffffffffffffffffffffff160217905550808273ffffffffffffffffffffffffffffffffffffffff16611ab78361108b565b73ffffffffffffffffffffffffffffffffffffffff167f8c5be1e5ebec7d5bd14f71427d1e84f3dd0314c0f7b2291e5b200ac8c7c3b92560405160405180910390a45050565b600081600001549050919050565b600080611b178361108b565b90508073ffffffffffffffffffffffffffffffffffffffff168473ffffffffffffffffffffffffffffffffffffffff161480611b595750611b5881856118f3565b5b80611b9757508373ffffffffffffffffffffffffffffffffffffffff16611b7f84610664565b73ffffffffffffffffffffffffffffffffffffffff16145b91505092915050565b8273ffffffffffffffffffffffffffffffffffffffff16611bc08261108b565b73ffffffffffffffffffffffffffffffffffffffff1614611c16576040517f08c379a0000000000000000000000000000000000000000000000000000000008152600401611c0d90613b5c565b60405180910390fd5b600073ffffffffffffffffffffffffffffffffffffffff168273ffffffffffffffffffffffffffffffffffffffff1603611c85576040517f08c379a0000000000000000000000000000000000000000000000000000000008152600401611c7c90613bee565b60405180910390fd5b611c92838383600161265d565b8273ffffffffffffffffffffffffffffffffffffffff16611cb28261108b565b73ffffffffffffffffffffffffffffffffffffffff1614611d08576040517f08c379a0000000000000000000000000000000000000000000000000000000008152600401611cff90613b5c565b60405180910390fd5b6004600082815260200190815260200160002060006101000a81549073ffffffffffffffffffffffffffffffffffffffff02191690556001600360008573ffffffffffffffffffffffffffffffffffffffff1673ffffffffffffffffffffffffffffffffffffffff168152602001908152602001600020600082825403925050819055506001600360008473ffffffffffffffffffffffffffffffffffffffff1673ffffffffffffffffffffffffffffffffffffffff16815260200190815260200160002060008282540192505081905550816002600083815260200190815260200160002060006101000a81548173ffffffffffffffffffffffffffffffffffffffff021916908373ffffffffffffffffffffffffffffffffffffffff160217905550808273ffffffffffffffffffffffffffffffffffffffff168473ffffffffffffffffffffffffffffffffffffffff167fddf252ad1be2c89b69c2b068fc378daa952ba7f163c4a11628f55a4df523b3ef60405160405180910390a4611e948383836001612783565b505050565b60006002600083815260200190815260200160002060009054906101000a900473ffffffffffffffffffffffffffffffffffffffff169050919050565b6001816000016000828254019250508190555050565b600073ffffffffffffffffffffffffffffffffffffffff168273ffffffffffffffffffffffffffffffffffffffff1603611f5b576040517f08c379a0000000000000000000000000000000000000000000000000000000008152600401611f5290613c5a565b60405180910390fd5b611f648161261c565b15611fa4576040517f08c379a0000000000000000000000000000000000000000000000000000000008152600401611f9b90613cc6565b60405180910390fd5b611fb260008383600161265d565b611fbb8161261c565b15611ffb576040517f08c379a0000000000000000000000000000000000000000000000000000000008152600401611ff290613cc6565b60405180910390fd5b6001600360008473ffffffffffffffffffffffffffffffffffffffff1673ffffffffffffffffffffffffffffffffffffffff16815260200190815260200160002060008282540192505081905550816002600083815260200190815260200160002060006101000a81548173ffffffffffffffffffffffffffffffffffffffff021916908373ffffffffffffffffffffffffffffffffffffffff160217905550808273ffffffffffffffffffffffffffffffffffffffff16600073ffffffffffffffffffffffffffffffffffffffff167fddf252ad1be2c89b69c2b068fc378daa952ba7f163c4a11628f55a4df523b3ef60405160405180910390a4612105600083836001612783565b5050565b6121128261261c565b612151576040517f08c379a000000000000000000000000000000000000000000000000000000000815260040161214890613d58565b60405180910390fd5b806006600084815260200190815260200160002090816121719190613f24565b505050565b600081116121b9576040517f08c379a00000000000000000000000000000000000000000000000000000000081526004016121b090614042565b60405180910390fd5b60095434146121fd576040517f08c379a00000000000000000000000000000000000000000000000000000000081526004016121f490613aca565b60405180910390fd5b6040518060a001604052808381526020013373ffffffffffffffffffffffffffffffffffffffff1681526020013073ffffffffffffffffffffffffffffffffffffffff16815260200182815260200160001515815250600b60008481526020019081526020016000206000820151816000015560208201518160010160006101000a81548173ffffffffffffffffffffffffffffffffffffffff021916908373ffffffffffffffffffffffffffffffffffffffff16021790555060408201518160020160006101000a81548173ffffffffffffffffffffffffffffffffffffffff021916908373ffffffffffffffffffffffffffffffffffffffff1602179055506060820151816003015560808201518160040160006101000a81548160ff021916908315150217905550905050612336333084611ba0565b817fb640004f1d14576d0c209e240cad0410e0d8c0c33a09375861fbadae2588a98d333084600060405161236d9493929190614062565b60405180910390a25050565b8173ffffffffffffffffffffffffffffffffffffffff168373ffffffffffffffffffffffffffffffffffffffff16036123e7576040517f08c379a00000000000000000000000000000000000000000000000000000000081526004016123de906140f3565b60405180910390fd5b80600560008573ffffffffffffffffffffffffffffffffffffffff1673ffffffffffffffffffffffffffffffffffffffff16815260200190815260200160002060008473ffffffffffffffffffffffffffffffffffffffff1673ffffffffffffffffffffffffffffffffffffffff16815260200190815260200160002060006101000a81548160ff0219169083151502179055508173ffffffffffffffffffffffffffffffffffffffff168373ffffffffffffffffffffffffffffffffffffffff167f17307eab39ab6107e8899845ad3d59bd9653f200f220920489ca2b5937696c31836040516124d89190612c65565b60405180910390a3505050565b6124f0848484611ba0565b6124fc84848484612789565b61253b576040517f08c379a000000000000000000000000000000000000000000000000000000000815260040161253290614185565b60405180910390fd5b50505050565b606060405180602001604052806000815250905090565b6060612563826119f1565b600061256d612541565b9050600081511161258d57604051806020016040528060008152506125b8565b8061259784612910565b6040516020016125a89291906139a2565b6040516020818303038152906040525b915050919050565b6000816000015490506000811161260c576040517f08c379a0000000000000000000000000000000000000000000000000000000008152600401612603906141f1565b60405180910390fd5b6001810382600001819055505050565b60008073ffffffffffffffffffffffffffffffffffffffff1661263e83611e99565b73ffffffffffffffffffffffffffffffffffffffff1614159050919050565b600181111561277d57600073ffffffffffffffffffffffffffffffffffffffff168473ffffffffffffffffffffffffffffffffffffffff16146126f15780600360008673ffffffffffffffffffffffffffffffffffffffff1673ffffffffffffffffffffffffffffffffffffffff16815260200190815260200160002060008282546126e991906135d3565b925050819055505b600073ffffffffffffffffffffffffffffffffffffffff168373ffffffffffffffffffffffffffffffffffffffff161461277c5780600360008573ffffffffffffffffffffffffffffffffffffffff1673ffffffffffffffffffffffffffffffffffffffff16815260200190815260200160002060008282546127749190613607565b925050819055505b5b50505050565b50505050565b60006127aa8473ffffffffffffffffffffffffffffffffffffffff166129de565b15612903578373ffffffffffffffffffffffffffffffffffffffff1663150b7a026127d3611a3c565b8786866040518563ffffffff1660e01b81526004016127f59493929190614266565b6020604051808303816000875af192505050801561283157506040513d601f19601f8201168201806040525081019061282e91906142c7565b60015b6128b3573d8060008114612861576040519150601f19603f3d011682016040523d82523d6000602084013e612866565b606091505b5060008151036128ab576040517f08c379a00000000000000000000000000000000000000000000000000000000081526004016128a290614185565b60405180910390fd5b805181602001fd5b63150b7a0260e01b7bffffffffffffffffffffffffffffffffffffffffffffffffffffffff1916817bffffffffffffffffffffffffffffffffffffffffffffffffffffffff191614915050612908565b600190505b949350505050565b60606000600161291f84612a01565b01905060008167ffffffffffffffff81111561293e5761293d613089565b5b6040519080825280601f01601f1916602001820160405280156129705781602001600182028036833780820191505090505b509050600082602001820190505b6001156129d3578080600190039150507f3031323334353637383961626364656600000000000000000000000000000000600a86061a8153600a85816129c7576129c66142f4565b5b0494506000850361297e575b819350505050919050565b6000808273ffffffffffffffffffffffffffffffffffffffff163b119050919050565b600080600090507a184f03e93ff9f4daa797ed6e38ed64bf6a1f0100000000000000008310612a5f577a184f03e93ff9f4daa797ed6e38ed64bf6a1f0100000000000000008381612a5557612a546142f4565b5b0492506040810190505b6d04ee2d6d415b85acef81000000008310612a9c576d04ee2d6d415b85acef81000000008381612a9257612a916142f4565b5b0492506020810190505b662386f26fc100008310612acb57662386f26fc100008381612ac157612ac06142f4565b5b0492506010810190505b6305f5e1008310612af4576305f5e1008381612aea57612ae96142f4565b5b0492506008810190505b6127108310612b19576127108381612b0f57612b0e6142f4565b5b0492506004810190505b60648310612b3c5760648381612b3257612b316142f4565b5b0492506002810190505b600a8310612b4b576001810190505b80915050919050565b6040518060a0016040528060008152602001600073ffffffffffffffffffffffffffffffffffffffff168152602001600073ffffffffffffffffffffffffffffffffffffffff168152602001600081526020016000151581525090565b6000604051905090565b600080fd5b600080fd5b60007fffffffff0000000000000000000000000000000000000000000000000000000082169050919050565b612bfa81612bc5565b8114612c0557600080fd5b50565b600081359050612c1781612bf1565b92915050565b600060208284031215612c3357612c32612bbb565b5b6000612c4184828501612c08565b91505092915050565b60008115159050919050565b612c5f81612c4a565b82525050565b6000602082019050612c7a6000830184612c56565b92915050565b600081519050919050565b600082825260208201905092915050565b60005b83811015612cba578082015181840152602081019050612c9f565b60008484015250505050565b6000601f19601f8301169050919050565b6000612ce282612c80565b612cec8185612c8b565b9350612cfc818560208601612c9c565b612d0581612cc6565b840191505092915050565b60006020820190508181036000830152612d2a8184612cd7565b905092915050565b6000819050919050565b612d4581612d32565b8114612d5057600080fd5b50565b600081359050612d6281612d3c565b92915050565b600060208284031215612d7e57612d7d612bbb565b5b6000612d8c84828501612d53565b91505092915050565b600073ffffffffffffffffffffffffffffffffffffffff82169050919050565b6000612dc082612d95565b9050919050565b612dd081612db5565b82525050565b6000602082019050612deb6000830184612dc7565b92915050565b612dfa81612db5565b8114612e0557600080fd5b50565b600081359050612e1781612df1565b92915050565b60008060408385031215612e3457612e33612bbb565b5b6000612e4285828601612e08565b9250506020612e5385828601612d53565b9150509250929050565b600081519050919050565b600082825260208201905092915050565b6000819050602082019050919050565b612e9281612d32565b82525050565b6000612ea382612d95565b9050919050565b612eb381612e98565b82525050565b612ec281612c4a565b82525050565b60a082016000820151612ede6000850182612e89565b506020820151612ef16020850182612eaa565b506040820151612f046040850182612eaa565b506060820151612f176060850182612e89565b506080820151612f2a6080850182612eb9565b50505050565b6000612f3c8383612ec8565b60a08301905092915050565b6000602082019050919050565b6000612f6082612e5d565b612f6a8185612e68565b9350612f7583612e79565b8060005b83811015612fa6578151612f8d8882612f30565b9750612f9883612f48565b925050600181019050612f79565b5085935050505092915050565b60006020820190508181036000830152612fcd8184612f55565b905092915050565b612fde81612d32565b82525050565b6000602082019050612ff96000830184612fd5565b92915050565b60008060006060848603121561301857613017612bbb565b5b600061302686828701612e08565b935050602061303786828701612e08565b925050604061304886828701612d53565b9150509250925092565b60006020828403121561306857613067612bbb565b5b600061307684828501612e08565b91505092915050565b600080fd5b600080fd5b7f4e487b7100000000000000000000000000000000000000000000000000000000600052604160045260246000fd5b6130c182612cc6565b810181811067ffffffffffffffff821117156130e0576130df613089565b5b80604052505050565b60006130f3612bb1565b90506130ff82826130b8565b919050565b600067ffffffffffffffff82111561311f5761311e613089565b5b61312882612cc6565b9050602081019050919050565b82818337600083830152505050565b600061315761315284613104565b6130e9565b90508281526020810184848401111561317357613172613084565b5b61317e848285613135565b509392505050565b600082601f83011261319b5761319a61307f565b5b81356131ab848260208601613144565b91505092915050565b600080604083850312156131cb576131ca612bbb565b5b600083013567ffffffffffffffff8111156131e9576131e8612bc0565b5b6131f585828601613186565b925050602061320685828601612d53565b9150509250929050565b61321981612c4a565b811461322457600080fd5b50565b60008135905061323681613210565b92915050565b6000806040838503121561325357613252612bbb565b5b600061326185828601612e08565b925050602061327285828601613227565b9150509250929050565b600067ffffffffffffffff82111561329757613296613089565b5b6132a082612cc6565b9050602081019050919050565b60006132c06132bb8461327c565b6130e9565b9050828152602081018484840111156132dc576132db613084565b5b6132e7848285613135565b509392505050565b600082601f8301126133045761330361307f565b5b81356133148482602086016132ad565b91505092915050565b6000806000806080858703121561333757613336612bbb565b5b600061334587828801612e08565b945050602061335687828801612e08565b935050604061336787828801612d53565b925050606085013567ffffffffffffffff81111561338857613387612bc0565b5b613394878288016132ef565b91505092959194509250565b600080604083850312156133b7576133b6612bbb565b5b60006133c585828601612d53565b92505060206133d685828601612d53565b9150509250929050565b600080604083850312156133f7576133f6612bbb565b5b600061340585828601612e08565b925050602061341685828601612e08565b9150509250929050565b7f4e487b7100000000000000000000000000000000000000000000000000000000600052602260045260246000fd5b6000600282049050600182168061346757607f821691505b60208210810361347a57613479613420565b5b50919050565b7f4552433732313a20617070726f76616c20746f2063757272656e74206f776e6560008201527f7200000000000000000000000000000000000000000000000000000000000000602082015250565b60006134dc602183612c8b565b91506134e782613480565b604082019050919050565b6000602082019050818103600083015261350b816134cf565b9050919050565b7f4552433732313a20617070726f76652063616c6c6572206973206e6f7420746f60008201527f6b656e206f776e6572206f7220617070726f76656420666f7220616c6c000000602082015250565b600061356e603d83612c8b565b915061357982613512565b604082019050919050565b6000602082019050818103600083015261359d81613561565b9050919050565b7f4e487b7100000000000000000000000000000000000000000000000000000000600052601160045260246000fd5b60006135de82612d32565b91506135e983612d32565b9250828203905081811115613601576136006135a4565b5b92915050565b600061361282612d32565b915061361d83612d32565b9250828201905080821115613635576136346135a4565b5b92915050565b7f4e487b7100000000000000000000000000000000000000000000000000000000600052603260045260246000fd5b600061367582612d32565b91507fffffffffffffffffffffffffffffffffffffffffffffffffffffffffffffffff82036136a7576136a66135a4565b5b600182019050919050565b7f4552433732313a2063616c6c6572206973206e6f7420746f6b656e206f776e6560008201527f72206f7220617070726f76656400000000000000000000000000000000000000602082015250565b600061370e602d83612c8b565b9150613719826136b2565b604082019050919050565b6000602082019050818103600083015261373d81613701565b9050919050565b7f4552433732313a20696e76616c696420746f6b656e2049440000000000000000600082015250565b600061377a601883612c8b565b915061378582613744565b602082019050919050565b600060208201905081810360008301526137a98161376d565b9050919050565b7f4552433732313a2061646472657373207a65726f206973206e6f74206120766160008201527f6c6964206f776e65720000000000000000000000000000000000000000000000602082015250565b600061380c602983612c8b565b9150613817826137b0565b604082019050919050565b6000602082019050818103600083015261383b816137ff565b9050919050565b7f4f6e6c79206d61726b6574706c616365206f776e65722063616e20757064617460008201527f65206c697374696e672070726963652e00000000000000000000000000000000602082015250565b600061389e603083612c8b565b91506138a982613842565b604082019050919050565b600060208201905081810360008301526138cd81613891565b9050919050565b7f506c65617365207375626d6974207468652061736b696e67207072696365206960008201527f6e206f7264657220746f20636f6d706c65746520746865207075726368617365602082015250565b6000613930604083612c8b565b915061393b826138d4565b604082019050919050565b6000602082019050818103600083015261395f81613923565b9050919050565b600081905092915050565b600061397c82612c80565b6139868185613966565b9350613996818560208601612c9c565b80840191505092915050565b60006139ae8285613971565b91506139ba8284613971565b91508190509392505050565b7f4f6e6c79206974656d206f776e65722063616e20706572666f726d207468697360008201527f206f7065726174696f6e00000000000000000000000000000000000000000000602082015250565b6000613a22602a83612c8b565b9150613a2d826139c6565b604082019050919050565b60006020820190508181036000830152613a5181613a15565b9050919050565b7f5072696365206d75737420626520657175616c20746f206c697374696e67207060008201527f7269636500000000000000000000000000000000000000000000000000000000602082015250565b6000613ab4602483612c8b565b9150613abf82613a58565b604082019050919050565b60006020820190508181036000830152613ae381613aa7565b9050919050565b7f4552433732313a207472616e736665722066726f6d20696e636f72726563742060008201527f6f776e6572000000000000000000000000000000000000000000000000000000602082015250565b6000613b46602583612c8b565b9150613b5182613aea565b604082019050919050565b60006020820190508181036000830152613b7581613b39565b9050919050565b7f4552433732313a207472616e7366657220746f20746865207a65726f2061646460008201527f7265737300000000000000000000000000000000000000000000000000000000602082015250565b6000613bd8602483612c8b565b9150613be382613b7c565b604082019050919050565b60006020820190508181036000830152613c0781613bcb565b9050919050565b7f4552433732313a206d696e7420746f20746865207a65726f2061646472657373600082015250565b6000613c44602083612c8b565b9150613c4f82613c0e565b602082019050919050565b60006020820190508181036000830152613c7381613c37565b9050919050565b7f4552433732313a20746f6b656e20616c7265616479206d696e74656400000000600082015250565b6000613cb0601c83612c8b565b9150613cbb82613c7a565b602082019050919050565b60006020820190508181036000830152613cdf81613ca3565b9050919050565b7f45524337323155524953746f726167653a2055524920736574206f66206e6f6e60008201527f6578697374656e7420746f6b656e000000000000000000000000000000000000602082015250565b6000613d42602e83612c8b565b9150613d4d82613ce6565b604082019050919050565b60006020820190508181036000830152613d7181613d35565b9050919050565b60008190508160005260206000209050919050565b60006020601f8301049050919050565b600082821b905092915050565b600060088302613dda7fffffffffffffffffffffffffffffffffffffffffffffffffffffffffffffffff82613d9d565b613de48683613d9d565b95508019841693508086168417925050509392505050565b6000819050919050565b6000613e21613e1c613e1784612d32565b613dfc565b612d32565b9050919050565b6000819050919050565b613e3b83613e06565b613e4f613e4782613e28565b848454613daa565b825550505050565b600090565b613e64613e57565b613e6f818484613e32565b505050565b5b81811015613e9357613e88600082613e5c565b600181019050613e75565b5050565b601f821115613ed857613ea981613d78565b613eb284613d8d565b81016020851015613ec1578190505b613ed5613ecd85613d8d565b830182613e74565b50505b505050565b600082821c905092915050565b6000613efb60001984600802613edd565b1980831691505092915050565b6000613f148383613eea565b9150826002028217905092915050565b613f2d82612c80565b67ffffffffffffffff811115613f4657613f45613089565b5b613f50825461344f565b613f5b828285613e97565b600060209050601f831160018114613f8e5760008415613f7c578287015190505b613f868582613f08565b865550613fee565b601f198416613f9c86613d78565b60005b82811015613fc457848901518255600182019150602085019450602081019050613f9f565b86831015613fe15784890151613fdd601f891682613eea565b8355505b6001600288020188555050505b505050505050565b7f5072696365206d757374206265206174206c6561737420312077656900000000600082015250565b600061402c601c83612c8b565b915061403782613ff6565b602082019050919050565b6000602082019050818103600083015261405b8161401f565b9050919050565b60006080820190506140776000830187612dc7565b6140846020830186612dc7565b6140916040830185612fd5565b61409e6060830184612c56565b95945050505050565b7f4552433732313a20617070726f766520746f2063616c6c657200000000000000600082015250565b60006140dd601983612c8b565b91506140e8826140a7565b602082019050919050565b6000602082019050818103600083015261410c816140d0565b9050919050565b7f4552433732313a207472616e7366657220746f206e6f6e20455243373231526560008201527f63656976657220696d706c656d656e7465720000000000000000000000000000602082015250565b600061416f603283612c8b565b915061417a82614113565b604082019050919050565b6000602082019050818103600083015261419e81614162565b9050919050565b7f436f756e7465723a2064656372656d656e74206f766572666c6f770000000000600082015250565b60006141db601b83612c8b565b91506141e6826141a5565b602082019050919050565b6000602082019050818103600083015261420a816141ce565b9050919050565b600081519050919050565b600082825260208201905092915050565b600061423882614211565b614242818561421c565b9350614252818560208601612c9c565b61425b81612cc6565b840191505092915050565b600060808201905061427b6000830187612dc7565b6142886020830186612dc7565b6142956040830185612fd5565b81810360608301526142a7818461422d565b905095945050505050565b6000815190506142c181612bf1565b92915050565b6000602082840312156142dd576142dc612bbb565b5b60006142eb848285016142b2565b91505092915050565b7f4e487b7100000000000000000000000000000000000000000000000000000000600052601260045260246000fdfea2646970667358221220fa008e6bf4049c4d33e327a9e0f45f01d9ca1892fd1bebcdf3123a7e2ad5061f64736f6c63430008110033",
  "linkReferences": {},
  "deployedLinkReferences": {}
}